:020000040000FA
:04000000FEEF17F008
:082B0600080E936E816A1200B3
:102B0F00D92FDE2FE32FE82F03D4EC15F044EC166A
:102B1F00F083EC15F0F28CF28E120006500724D9D8
:102B2F006EDA6ADF6A06C003F0046AC30E056E62CE
:102B3F00EC16F0120006500724D96EDA6ADF6A0627
:102B4F00C003F0046AC60E056E62EC16F0120006A2
:102B5F00500724D96EDA6ADF6A06C003F0046AC030
:102B6F000E056E62EC16F012000F0EF66E2B0EF7BE
:102B7F006E000EF86E00EE23F010EE09F00900F56E
:102B8F00CFEEFFE550E150FAE12E6A2D6A2C6A0074
:102B9F000EF86E0001E2EF16F0956A9450F80B9460
:102BAF006E8290000E016E020E0AEC16F0000E01FE
:102BBF006E380E0AEC16F0000E016E0C0E0AEC16B3
:102BCF00F0000E016E010E0AEC16F012000650D93D
:102BDF006EDA6ADF502B6E040E2B60F9EF15F0FBE7
:102BEF00EF15F009EF16F02B50020DF350230FD90C
:102BFF006EDA6ADECF03F0DDCF04F0CB0E056E6226
:102C0F00EC16F01200026E01B010EF16F013EF1673
:102C1F00F0828214EF16F0829202C083FF828482C8
:102C2F0094958E828082928284829483BE22EF1644
:102C3F00F024EF16F01BEF16F08290959E120061B4
:102C4F0050036E046AD89003360436D890033604C6
:102C5F0036D890033604366238E842070B070B0567
:102C6F006E066A03500510076E04500610086E07B3
:102C7F00C001F008C002F01200939493861F0E6FEC
:102C8F00166F8E800E6E18D8A450EF16F052EF16F6
:102C9F00F049EF16F0776AE10E706E1B0E716E033E
:102CAF000E726E0D01D46B1F0E6F166F50606A603F
:102CBF008A608C1200000E016E05500AEC16F07F30
:102CCF00EF16F0010E016E03C0F6FF04C0F7FFF818
:102CDF006A050EF76403D00800F55005D0F6CFE96A
:102CEF00FFF7CFEAFFEF500AEC16F0034A042A036E
:102CFF00C0F6FF04C0F7FFF86A050EF76403D008AB
:102D0F0000F55005D0F6CFE9FFF7CFEAFFEF5000FF
:102D1F0009D8A495EF16F097EF16F069EF16F01299
:102D2F000060AE9DEF16F09FEF16F0DDEF16F02767
:102D3F00EC16F00950D96EDA6A01C0DEFF02C0DD71
:102D4F00FF0B50D96EDA6A65CFDFFF660E0F6E0F7D
:102D5F000E106E126A000E116EC4EF16F011500FA6
:102D6F0024D96E12501020DA6E0A501124E16EE24F
:102D7F006ADFCFE7FF114A122A0B50D96EDA6ADFEA
:102D8F00500C6E0D6A0C50115C1250800A0E6E0DB5
:102D9F0050800A0E58D8A0D7EF16F0D9EF16F0B61C
:102DAF00EF16F0609EA490E1EF16F00B50D96EDA9B
:102DBF006ADF6A1200000E1F6E000E206E000E21D9
:102DCF006E000E226E8CEC15F030EC17F0F50E0342
:102DDF006E2F0E046E800E056E62EC16F0F80E0369
:102DEF006E2F0E046E830E056E62EC16F0F10E035D
:102DFF006E2F0E046E860E056E62EC16F0ED0E034E
:102E0F006E2F0E046E8B0E056E62EC16F0010E1F08
:102E1F0026000E202221222222E90E1F1809E1038B
:102E2F000E201821102210D8A420EF17F022EF1730
:102E3F00F0ECEF16F0000E1F6E000E206E000E214C
:102E4F006E000E226E81EC17F0ECEF16F0FEEF170E
:102E5F00F01C0E096E130E0A6E1E0E0B6E98EC16FA
:102E6F00F01E50D8B43EEF17F040EF17F080EF1779
:102E7F00F0100E1C181D10D8A448EF17F04AEF17CA
:102E8F00F050EF17F0130E066E1EC007F0AFEC15E3
:102E9F00F0200E1C181D10D8A458EF17F05AEF177A
:102EAF00F060EF17F0130E066E1EC007F095EC15CD
:102EBF00F0300E1C181D10D8A468EF17F06AEF172A
:102ECF00F070EF17F0130E066E1EC007F0A2EC1590
:102EDF00F0500E1C181D10D8A478EF17F07AEF17CA
:102EEF00F080EF17F0130E066E1EC007F0EEEC1514
:102EFF00F01200030E2B18D8A488EF17F08AEF17E3
:102F0F00F092EF17F081503F0B816E8150FC0B81D7
:102F1F006EEBEF17F02B50D8A498EF17F09AEF172E
:102F2F00F0B5EF17F02C50D8A4A0EF17F0A2EF17C1
:102F3F00F0ACEF17F0010E2C6E81500309816E81FA
:102F4F00503F0B816EEBEF17F02C6A8150FC0B8119
:102F5F006E81503F0B816EEBEF17F02B04D8A4BBA3
:102F6F00EF17F0BDEF17F0D2EF17F02C50D8A4C326
:102F7F00EF17F0C5EF17F0CFEF17F0010E2C6E81A2
:102F8F0050C009816E8150FC0B816EEBEF17F02C56
:102F9F006A8AEF17F0020E2B18D8A4D9EF17F0DBBF
:102FAF00EF17F0EBEF17F02C50D8A4E1EF17F0E389
:102FBF00EF17F0ACEF17F0010E2C6E815003098163
:102FCF006E8150C009816E1200003C2D2D20002D06
:102FDF002D3E20003C2D3E20004F46462000494EFE
:0C2FEF00440052504D00535000470000B9
:042FFC00BCEF15F021
:00000001FF
