:020000040000FA
:04000000FEEF17F008
:1006000000001250800B1F6E12501224266E11AE85
:100610000CEF03F00EEF03F00FEF03F026802650EF
:10062000D8B415EF03F017EF03F02BEF03F02628F3
:10063000D8A41DEF03F01FEF03F027EF03F0000E27
:100640000F6E000E106E000E116E000E126E118EE7
:10065000126A33EF03F0000E0F6E000E106E000EE4
:10066000116E000E126E1650800B1F1A16501624B3
:10067000276E15AE3EEF03F040EF03F041EF03F0BD
:1006800027802750D8B447EF03F049EF03F05DEF20
:1006900003F02728D8A44FEF03F051EF03F059EFF0
:1006A00003F0000E136E000E146E000E156E000E99
:1006B000166E158E166A65EF03F0000E136E000EAF
:1006C000146E000E156E000E166E135014101510D9
:1006D0001610D8A46EEF03F070EF03F088EF03F06C
:1006E000000E0F6E000E106E000E116E000E126ED8
:1006F000800E11127F0E12121F5012120FC00FF037
:1007000010C010F011C011F012C012F0C7EF04F0C9
:100710002650D8A48EEF03F090EF03F09AEF03F089
:10072000000E0F6E000E106E000E116E000E126E97
:10073000C7EF04F0275026C017F0186A175E000EA6
:10074000185A7F0E1724206E000E1820216E0FC03D
:100750001BF010C01CF011C01DF012C01EF0000EE6
:100760000F6E000E106E000E116E000E126E000E57
:10077000226E000E236E000E246E000E256E276A78
:10078000FAEF03F02750D8B4C8EF03F0CAEF03F034
:10079000E1EF03F0D8901B361C361D361E36D8907C
:1007A0000F3610361136123625AED9EF03F0DBEFD7
:1007B00003F0DCEF03F00F80D89022362336243686
:1007C000253613501B5C14501C5815501D581650DC
:1007D0001E58D8A0EEEF03F0F0EF03F0F9EF03F0AE
:1007E000258C13501B5E14501C5A15501D5A165060
:1007F0001E5A272A190E276400EF04F002EF04F0B6
:10080000C2EF03F01B501C101D101E10D8B40BEFCC
:1008100004F00DEF04F025EF04F0228025EF04F042
:10082000D8900F3610361136123625AE1AEF04F076
:100830001CEF04F01DEF04F00F80D8902236233611
:10084000243625362006D8A0210611AE2AEF04F062
:100850002CEF04F010EF04F0276A25AE32EF04F01D
:1008600034EF04F058EF04F0FF0E2214176EFF0E61
:100870002314186EFF0E2414196E7F0E25141A6EA1
:100880001750181019101A10D8B449EF04F04BEF94
:1008900004F04FEF04F0010E276E58EF04F00FA0A4
:1008A00054EF04F056EF04F058EF04F04BEF04F06F
:1008B0002750D8B45EEF04F060EF04F084EF04F04A
:1008C000010E0F26000E10221122122212A06BEF31
:1008D00004F06DEF04F084EF04F00FC017F010C0C7
:1008E00018F011C019F012C01AF01A341A32193265
:1008F0001832173217C00FF018C010F019C011F0DD
:100900001AC012F0204A212A21BE8FEF04F0215094
:1009100008E12028D8A08FEF04F091EF04F09CEFBD
:1009200004F0000E216E2068000E0F6E000E106E97
:10093000000E116E000E126E21BEA9EF04F02150C0
:1009400006E12004D8B0A7EF04F0A9EF04F0B5EF5A
:1009500004F0216A000E206E000E0F6E000E106E65
:10096000000E116E000E126E1F6A20C026F026A027
:10097000BCEF04F0BEEF04F0C1EF04F0118EC2EF43
:1009800004F0119ED8902630126E7CEF03F0120016
:10099000096E0950D8B4CFEF04F0D1EF04F0F3EFB3
:1009A00004F004BED8EF04F0D6EF04F0F3EF04F047
:1009B00001C005F002C006F003C007F004C008F053
:1009C000051E061E071E081E052A000E0622072207
:1009D000082205C00BF006C00CF007C00DF008C0DF
:1009E0000EF0FBEF04F001C00BF002C00CF003C0EE
:1009F0000DF004C00EF00150021003100410D8A432
:100A000004EF05F006EF05F010EF05F0000E016EA3
:100A1000000E026E000E036E000E046EA1EF05F0D4
:100A2000960E0A6E1AEF05F00A2AD8900E320D3291
:100A30000C320B32000E0B14056E000E0C14066EF9
:100A4000000E0D14076EFE0E0E14086E05500610F3
:100A500007100810D8A42FEF05F031EF05F014EFC0
:100A600005F03FEF05F00A2A010E0B26000E0C22BE
:100A70000D220E22D8900E320D320C320B32000EA7
:100A80000B14056E000E0C14066E000E0D14076E8E
:100A9000FF0E0E14086E0550061007100810D8A49B
:100AA00054EF05F056EF05F033EF05F05EEF05F07B
:100AB0000A06D8900B360C360D360E360DBE63EF97
:100AC00005F065EF05F06DEF05F0020E0A606BEFC3
:100AD00005F06DEF05F058EF05F00AB072EF05F084
:100AE00074EF05F075EF05F00D9ED8900A320AC03C
:100AF00005F0066A076A086A05C008F0076A066A10
:100B0000056A05500B1206500C1207500D120850C2
:100B10000E120950D8B48FEF05F091EF05F099EF60
:100B200005F004BE98EF05F096EF05F099EF05F09B
:100B30000E8E0BC001F00CC002F00DC003F00EC011
:100B400004F012007BEC08F06DEC08F04EEC08F0BD
:100B500032EC08F08AEC07F032C03DF033C03EF0D2
:100B60001CEC07F03C6E030E046EE80E036E3DC0F5
:100B700001F03EC002F0E3EC06F001C008F002C054
:100B800009F00B6A0A0E0A6EBFEC07F00850300F2E
:100B9000376E046A640E036E3DC001F03EC002F081
:100BA000E3EC06F001C008F002C009F00B6A0A0E7F
:100BB0000A6EBFEC07F00850300F386E046A0A0E58
:100BC000036E3DC001F03EC002F0E3EC06F001C050
:100BD00008F002C009F00B6A0A0E0A6EBFEC07F0BB
:100BE0000850300F396E3DC008F03EC009F00B6A66
:100BF0000A0E0A6EBFEC07F00850300F3A6E3B6ADF
:100C0000066A300E056E370E076E040E086E53EC42
:100C100007F0410E366EEE0EE82EFED7362EFCD7CC
:100C200000D0066A500E056E3C0E076E010E086E6F
:100C300053EC07F0410E366EEE0EE82EFED7362E40
:100C4000FCD700D0AAEF05F0FEEF17F02A342B34C2
:100C5000316E3150D8A42FEF06F031EF06F03BEFA4
:100C600006F0000E286E000E296E000E2A6E000E91
:100C70002B6EA8EF06F028C02CF029C02DF02AC05A
:100C80002EF02BC02FF0200E4BEF06F0D8902F3215
:100C90002E322D322C32E82E46EF06F02C50306EDC
:100CA0002A8EFF0E2816FF0E2916FF0E2A16000E9A
:100CB0002B16960E315E31BE62EF06F060EF06F045
:100CC00078EF06F03150800A970FD8B06AEF06F03F
:100CD0006CEF06F06EEF06F031EF06F0D8902B3295
:100CE0002A3229322832313E6EEF06F090EF06F0BC
:100CF0001F0E31647EEF06F080EF06F088EF06F0FD
:100D000031EF06F0D890283629362A362B363106B0
:100D10003150D8A48EEF06F090EF06F082EF06F087
:100D20003050D8B496EF06F098EF06F0A0EF06F03A
:100D30002B1E2A1E291E286C000E29222A222B2255
:100D400028C028F029C029F02AC02AF02BC02BF097
:100D50001200016E0104D8A4B0EF06F0B2EF06F065
:100D6000D7EF06F082500F0B0F0AD8B4BAEF06F097
:100D7000BCEF06F0C9EF06F03F50D8B4C2EF06F062
:100D8000C4EF06F0C9EF06F03F6A82500F0BE2EFA6
:100D900006F082500F0B0F0AD8A4D1EF06F0D3EF64
:100DA00006F0E1EF06F0010E3F6EE1EF06F00150B4
:100DB000D8A4DDEF06F0DFEF06F0E1EF06F0C5EFB7
:100DC00006F0FF0E1200066A000E056E03500410B6
:100DD000D8B4EDEF06F0EFEF06F017EF07F0010ED5
:100DE000076EF7EF06F0D89003360436072A04AEF4
:100DF000FCEF06F0FEEF06F0F3EF06F0D8900536B4
:100E000006360350015C04500258D8A00AEF07F0E0
:100E10000CEF07F011EF07F00350015E0450025A87
:100E20000580D89004320332072EFEEF06F005C08D
:100E300001F006C002F01200010EA9EC06F0026EED
:100E40000E0E0218D8A427EF07F029EF07F02CEFB9
:100E500007F0406A51EF07F00D0E0218D8A433EFE7
:100E600007F035EF07F039EF07F0010E406E51EF54
:100E700007F00B0E0218D8A440EF07F042EF07F07E
:100E800046EF07F0020E406E51EF07F0070E021812
:100E9000D8A44DEF07F04FEF07F051EF07F0030E26
:100EA000406E405012000F01436B446B05C001F0CF
:100EB00006C002F014EC08F008C045FF460E0C6EA8
:100EC0000F0E0D6E0F6A000E0E6E75EF07F00750D5
:100ED0000E24D96EDA6A0E500C24E16E0F500D20EC
:100EE000E26EDFCFE7FF0E4A0F2A0850096E0A6A4A
:100EF00009500E5C0F50800A0B6E0A50800A0B5886
:100F0000D8A085EF07F087EF07F067EF07F00F0134
:100F100040871200040EF1EC07F001C034F002C06B
:100F200035F08D0E136E970E146E2E0E156E3E0E4E
:100F3000166E34C001F035C002F0036A046A000E78
:100F4000C8EC04F001C00FF002C010F003C011F0B3
:100F500004C012F001EC03F00FC028F010C029F01B
:100F600011C02AF012C02BF026EC06F028C034F095
:100F700029C035F034C032F035C033F012000A50C9
:100F80000B10D8B4C6EF07F0C8EF07F0ECEF07F08E
:100F9000010E0C6ED0EF07F0D8900A360B360C2AF3
:100FA0000BAED5EF07F0D7EF07F0CCEF07F00A5004
:100FB000085C0B500958D8A0E0EF07F0E2EF07F00B
:100FC000E6EF07F00A50085E0B50095AD8900B3232
:100FD0000A320C2ED7EF07F008C008F009C009F05C
:100FE0001200076E07C003F0D8900336D89003367E
:100FF000C250C30B0310C26EC282C2B202EF08F02D
:1010000004EF08F0FDEF07F0C350C4CF03F0046A0B
:1010100003C004F0036A0310056E0450066E05C099
:1010200001F006C002F0120001C003F0070E031623
:10103000050E046ED8900336042E1AEF08F0035004
:101040000F01426F01C003F002C004F0D8900432D7
:101050000332D89004320332D89004320332035062
:10106000416F1200939493861F0E6F166F8E800E41
:101070006E18D8A43EEF08F040EF08F037EF08F004
:10108000776AE10E706E1B0E716E030E726E0D01AB
:10109000D46B1F0E6F166F50606A1200948E949C72
:1010A000AC9CAC8AAC98AC96AC84AB8EAB9CAB8859
:1010B000B896810EAF6E9E989E9A1200FE0EF66E46
:1010C000100EF76E000EF86E0900F5CF3FF0090024
:1010D000F5CF40F00001A2EF05F0C08EC09AC088A5
:1010E000C096C090C082C094C292C19AC198C46A8E
:1010F000C36AC280120094500F09946E120001035B
:042FFC005EEF08F08C
:00000001FF
