:020000040000FA
:04000000FEEF17F008
:1024A60094500F09946E1200F52FE32FE62FE92FB3
:1024B600EC2FEF2FF82FF22F0000C08EC09AC088A5
:1024C600C096C090C082C094C292C19AC198C46A94
:1024D600C36AC2801200948E949CAC9CAC8AAC9861
:1024E600AC96AC84AB8EAB9CAB88B896810EAF6EC7
:1024F6009E989E9A1200939493861F0E6F166F8E67
:10250600800E6E18D8A48AEF12F08CEF12F083EFCB
:1025160012F0776AE10E706E1B0E716E030E726E0C
:102526000D01D46B1F0E6F166F50606A120001C04A
:1025360003F0070E0316050E046ED8900336042E1C
:10254600A0EF12F003500F01426F01C003F002C06A
:1025560004F0D89004320332D89004320332D89073
:10256600043203320350416F1200AE0EF66E240E93
:10257600F76E000EF86E00EE60F010EE12F0090035
:10258600F5CFEEFFE550E150FAE1000EF66E300EA3
:10259600F76E000EF86E0900F5CF50F04F6A000E88
:1025A600F86E00016CEF14F0076E07C003F0D890C8
:1025B6000336D8900336C250C30B0310C26EC282D4
:1025C600C2B2E8EF12F0EAEF12F0E3EF12F0C350F6
:1025D600C4CF03F0046A03C004F0036A0310056E57
:1025E6000450066E05C001F006C002F0120003504A
:1025F6000410D8B401EF13F003EF13F027EF13F034
:10260600010E056E0BEF13F0D89003360436052A3B
:1026160004AE10EF13F012EF13F007EF13F00350B0
:10262600015C04500258D8A01BEF13F01DEF13F005
:1026360021EF13F00350015E0450025AD890043281
:102646000332052E12EF13F001C001F002C002F0B2
:102656001200040ED7EC12F001C034F002C035F0BF
:10266600F60E136E280E146E240E156E410E166E9F
:1026760034C001F035C002F0036A046A000E50EC63
:1026860015F001C00FF002C010F003C011F004C035
:1026960012F02AEC16F00FC028F010C029F011C075
:1026A6002AF012C02BF0CDEC14F028C034F029C06B
:1026B60035F034C032F035C033F01200066A000E31
:1026C600056E03500410D8B46BEF13F06DEF13F0E2
:1026D60095EF13F0010E076E75EF13F0D8900336E1
:1026E6000436072A04AE7AEF13F07CEF13F071EF8D
:1026F60013F0D890053606360350015C0450025894
:10270600D8A088EF13F08AEF13F08FEF13F0035081
:10271600015E0450025A0580D89004320332072E17
:102726007CEF13F005C001F006C002F01200016E46
:102736000104D8A4A1EF13F0A3EF13F0C8EF13F030
:1027460082500F0B0F0AD8B4ABEF13F0ADEF13F0B6
:10275600BAEF13F05050D8B4B3EF13F0B5EF13F04F
:10276600BAEF13F0506A82500F0BD3EF13F082507A
:102776000F0B0F0AD8A4C2EF13F0C4EF13F0D2EF79
:1027860013F0010E506ED2EF13F00150D8A4CEEF25
:1027960013F0D0EF13F0D2EF13F0B6EF13F0FF0EF5
:1027A60012000F01436B446B05C001F006C002F036
:1027B6009AEC12F009C045FF460E0D6E0F0E0E6E16
:1027C600106A000E0F6E07EF14F00F5007240A6E02
:1027D600105008200B6E0AC0F6FF0BC0F7FFF86A10
:1027E6000F500D24D96E10500E20DA6E050EF764C8
:1027F60003D00800F55005D0F6CFE9FFF7CFEAFF82
:10280600EF50DF6E0F4A102A09500A6E0B6A0A5003
:102816000F5C1050800A0C6E0B50800A0C58D8A022
:1028260017EF14F019EF14F0E8EF13F00F014087DB
:102836001200010E9AEC13F0026E0E0E0218D8A4C6
:1028460027EF14F029EF14F040EF14F0070E4F189D
:10285600D8A430EF14F032EF14F035EF14F04F6ACD
:102866006AEF14F0060E4F603BEF14F03DEF14F0E4
:102876006AEF14F04F2A6AEF14F00D0E0218D8A46E
:1028860047EF14F049EF14F05FEF14F0070E4F18FE
:10289600D8A450EF14F052EF14F054EF14F032EFC6
:1028A60014F04F50D8B45AEF14F05CEF14F06AEFFE
:1028B60014F04F066AEF14F00B0E0218D8A466EF58
:1028C60014F068EF14F06AEF14F0070E4F6E4F50D5
:1028D600120053EC12F060EC12F06EEC12F07EEC8B
:1028E60012F020EE60F010EE37F0110EDBCFE3FFB2
:1028F600E806FCE22CEC13F032C04DF033C04EF08B
:102906001CEC14F04C6E4DC001F04EC002F0046A8F
:102916000A0E036E61EC13F00150300F496E4DC084
:1029260001F04EC002F0046A0A0E036EFAEC12F0D1
:102936000150300F4A6E066A100E056E490E076E7C
:10294600086A020E096ED4EC13F0410E366EEE0ED6
:10295600E82EFED7362EFCD700D0066A200E056E6E
:102966004C50020DF350370FD96EDA6ADECF07F0FE
:10297600DDCF08F0020E096ED4EC13F0410E366E70
:10298600EE0EE82EFED7362EFCD700D07DEF14F0E3
:10299600FEEF17F02A342B34316E3150D8A4D6EF1F
:1029A60014F0D8EF14F0E2EF14F0000E286E000ECB
:1029B600296E000E2A6E000E2B6E4FEF15F028C002
:1029C6002CF029C02DF02AC02EF02BC02FF0200E9F
:1029D600F2EF14F0D8902F322E322D322C32E82E10
:1029E600EDEF14F02C50306E2A8EFF0E2816FF0ED7
:1029F6002916FF0E2A16000E2B16960E315E31BED4
:102A060009EF15F007EF15F01FEF15F03150800AAA
:102A1600970FD8B011EF15F013EF15F015EF15F06D
:102A2600D8EF14F0D8902B322A3229322832313E90
:102A360015EF15F037EF15F01F0E316425EF15F081
:102A460027EF15F02FEF15F0D8EF14F0D8902836B1
:102A560029362A362B3631063150D8A435EF15F0F3
:102A660037EF15F029EF15F03050D8B43DEF15F0DB
:102A76003FEF15F047EF15F02B1E2A1E291E286C76
:102A8600000E29222A222B2228C028F029C029F04C
:102A96002AC02AF02BC02BF01200096E0950D8B4B8
:102AA60057EF15F059EF15F07BEF15F004BE60EF08
:102AB60015F05EEF15F07BEF15F001C005F002C0D2
:102AC60006F003C007F004C008F0051E061E071E28
:102AD600081E052A000E06220722082205C00BF052
:102AE60006C00CF007C00DF008C00EF083EF15F01D
:102AF60001C00BF002C00CF003C00DF004C00EF0D4
:102B06000150021003100410D8A48CEF15F08EEFBC
:102B160015F098EF15F0000E016E000E026E000E15
:102B2600036E000E046E29EF16F0960E0A6EA2EFE3
:102B360015F00A2AD8900E320D320C320B32000EE6
:102B46000B14056E000E0C14066E000E0D14076EA7
:102B5600FE0E0E14086E0550061007100810D8A4B5
:102B6600B7EF15F0B9EF15F09CEF15F0C7EF15F0BC
:102B76000A2A010E0B26000E0C220D220E22D890D8
:102B86000E320D320C320B32000E0B14056E000E97
:102B96000C14066E000E0D14076EFF0E0E14086E52
:102BA6000550061007100810D8A4DCEF15F0DEEF6C
:102BB60015F0BBEF15F0E6EF15F00A06D8900B36C8
:102BC6000C360D360E360DBEEBEF15F0EDEF15F0AB
:102BD600F5EF15F0020E0A60F3EF15F0F5EF15F0BC
:102BE600E0EF15F00AB0FAEF15F0FCEF15F0FDEF87
:102BF60015F00D9ED8900A320AC005F0066A076ADB
:102C0600086A05C008F0076A066A056A05500B12CD
:102C160006500C1207500D1208500E120950D8B467
:102C260017EF16F019EF16F021EF16F004BE20EF9D
:102C360016F01EEF16F021EF16F00E8E0BC001F007
:102C46000CC002F00DC003F00EC004F012001250CA
:102C5600800B1F6E12501224266E11AE35EF16F041
:102C660037EF16F038EF16F026802650D8B43EEF30
:102C760016F040EF16F054EF16F02628D8A446EFCB
:102C860016F048EF16F050EF16F0000E0F6E000E1D
:102C9600106E000E116E000E126E118E126A5CEF2F
:102CA60016F0000E0F6E000E106E000E116E000E66
:102CB600126E1650800B1F1A16501624276E15AE6C
:102CC60067EF16F069EF16F06AEF16F027802750C7
:102CD600D8B470EF16F072EF16F086EF16F02728CC
:102CE600D8A478EF16F07AEF16F082EF16F0000E01
:102CF600136E000E146E000E156E000E166E158EF7
:102D0600166A8EEF16F0000E136E000E146E000E8D
:102D1600156E000E166E1350141015101610D8A44A
:102D260097EF16F099EF16F0B1EF16F0000E0F6E52
:102D3600000E106E000E116E000E126E800E111235
:102D46007F0E12121F5012120FC00FF010C010F09B
:102D560011C011F012C012F0F0EF17F02650D8A4EF
:102D6600B7EF16F0B9EF16F0C3EF16F0000E0F6EC0
:102D7600000E106E000E116E000E126EF0EF17F0C0
:102D8600275026C017F0186A175E000E185A7F0ED5
:102D96001724206E000E1820216E0FC01BF010C0E5
:102DA6001CF011C01DF012C01EF0000E0F6E000EBA
:102DB600106E000E116E000E126E000E226E000EC8
:102DC600236E000E246E000E256E276A23EF17F081
:102DD6002750D8B4F1EF16F0F3EF16F00AEF17F01C
:102DE600D8901B361C361D361E36D8900F36103638
:102DF6001136123625AE02EF17F004EF17F005EF85
:102E060017F00F80D89022362336243625361350F5
:102E16001B5C14501C5815501D5816501E58D8A02F
:102E260017EF17F019EF17F022EF17F0258C135054
:102E36001B5E14501C5A15501D5A16501E5A272A2E
:102E4600190E276429EF17F02BEF17F0EBEF16F0AA
:102E56001B501C101D101E10D8B434EF17F036EF9F
:102E660017F04EEF17F022804EEF17F0D8900F367E
:102E760010361136123625AE43EF17F045EF17F030
:102E860046EF17F00F80D8902236233624362536A3
:102E96002006D8A0210611AE53EF17F055EF17F014
:102EA60039EF17F0276A25AE5BEF17F05DEF17F0E5
:102EB60081EF17F0FF0E2214176EFF0E2314186E03
:102EC600FF0E2414196E7F0E25141A6E1750181053
:102ED60019101A10D8B472EF17F074EF17F078EFD4
:102EE60017F0010E276E81EF17F00FA07DEF17F098
:102EF6007FEF17F081EF17F074EF17F02750D8B473
:102F060087EF17F089EF17F0ADEF17F0010E0F26D8
:102F1600000E10221122122212A094EF17F096EF43
:102F260017F0ADEF17F00FC017F010C018F011C072
:102F360019F012C01AF01A341A321932183217322E
:102F460017C00FF018C010F019C011F01AC012F017
:102F5600204A212A21BEB8EF17F0215008E1202887
:102F6600D8A0B8EF17F0BAEF17F0C5EF17F0000EBC
:102F7600216E2068000E0F6E000E106E000E116E90
:102F8600000E126E21BED2EF17F0215006E120048A
:102F9600D8B0D0EF17F0D2EF17F0DEEF17F0216AB6
:102FA600000E206E000E0F6E000E106E000E116EDB
:102FB600000E126E1F6A20C026F026A0E5EF17F05D
:102FC600E7EF17F0EAEF17F0118EEBEF17F0119E0F
:102FD600D8902630126EA5EF16F0120000312000B0
:102FE6003220003320003420003520004320004EDC
:0B2FF600200052200000B8EF12F00194
:00000001FF
